{
  "contractName": "System",
  "abi": [
    {
      "constant": true,
      "inputs": [],
      "name": "prod",
      "outputs": [
        {
          "internalType": "uint256",
          "name": "id",
          "type": "uint256"
        },
        {
          "internalType": "string",
          "name": "name",
          "type": "string"
        },
        {
          "internalType": "string",
          "name": "description",
          "type": "string"
        },
        {
          "internalType": "string",
          "name": "companyName",
          "type": "string"
        }
      ],
      "payable": false,
      "stateMutability": "view",
      "type": "function"
    },
    {
      "constant": true,
      "inputs": [
        {
          "internalType": "bytes32",
          "name": "",
          "type": "bytes32"
        }
      ],
      "name": "products",
      "outputs": [
        {
          "internalType": "uint256",
          "name": "id",
          "type": "uint256"
        },
        {
          "internalType": "string",
          "name": "name",
          "type": "string"
        },
        {
          "internalType": "string",
          "name": "description",
          "type": "string"
        },
        {
          "internalType": "string",
          "name": "companyName",
          "type": "string"
        }
      ],
      "payable": false,
      "stateMutability": "view",
      "type": "function"
    },
    {
      "constant": false,
      "inputs": [
        {
          "internalType": "address",
          "name": "_useraddress",
          "type": "address"
        },
        {
          "internalType": "string",
          "name": "_name",
          "type": "string"
        },
        {
          "internalType": "string",
          "name": "_email",
          "type": "string"
        },
        {
          "internalType": "string",
          "name": "_password",
          "type": "string"
        }
      ],
      "name": "register_User",
      "outputs": [],
      "payable": false,
      "stateMutability": "nonpayable",
      "type": "function"
    },
    {
      "constant": false,
      "inputs": [
        {
          "internalType": "address",
          "name": "_compaddress",
          "type": "address"
        },
        {
          "internalType": "string",
          "name": "_name",
          "type": "string"
        },
        {
          "internalType": "string",
          "name": "_email",
          "type": "string"
        },
        {
          "internalType": "string",
          "name": "_password",
          "type": "string"
        },
        {
          "internalType": "uint256",
          "name": "_cert_num",
          "type": "uint256"
        }
      ],
      "name": "register_Company",
      "outputs": [],
      "payable": false,
      "stateMutability": "nonpayable",
      "type": "function"
    },
    {
      "constant": false,
      "inputs": [
        {
          "internalType": "uint256",
          "name": "_id",
          "type": "uint256"
        },
        {
          "internalType": "string",
          "name": "_name",
          "type": "string"
        },
        {
          "internalType": "string",
          "name": "_description",
          "type": "string"
        },
        {
          "internalType": "string",
          "name": "_companyName",
          "type": "string"
        }
      ],
      "name": "upload_Product",
      "outputs": [],
      "payable": false,
      "stateMutability": "nonpayable",
      "type": "function"
    },
    {
      "constant": true,
      "inputs": [
        {
          "internalType": "address",
          "name": "user_add",
          "type": "address"
        },
        {
          "internalType": "string",
          "name": "_name",
          "type": "string"
        },
        {
          "internalType": "string",
          "name": "_password",
          "type": "string"
        }
      ],
      "name": "login_user",
      "outputs": [
        {
          "internalType": "bool",
          "name": "found",
          "type": "bool"
        }
      ],
      "payable": false,
      "stateMutability": "view",
      "type": "function"
    },
    {
      "constant": true,
      "inputs": [
        {
          "internalType": "address",
          "name": "company_add",
          "type": "address"
        },
        {
          "internalType": "string",
          "name": "_name",
          "type": "string"
        },
        {
          "internalType": "string",
          "name": "_password",
          "type": "string"
        }
      ],
      "name": "login_company",
      "outputs": [
        {
          "internalType": "bool",
          "name": "found",
          "type": "bool"
        }
      ],
      "payable": false,
      "stateMutability": "view",
      "type": "function"
    },
    {
      "constant": false,
      "inputs": [
        {
          "internalType": "bytes32",
          "name": "product_add",
          "type": "bytes32"
        }
      ],
      "name": "verify_product",
      "outputs": [
        {
          "components": [
            {
              "internalType": "uint256",
              "name": "id",
              "type": "uint256"
            },
            {
              "internalType": "string",
              "name": "name",
              "type": "string"
            },
            {
              "internalType": "string",
              "name": "description",
              "type": "string"
            },
            {
              "internalType": "string",
              "name": "companyName",
              "type": "string"
            }
          ],
          "internalType": "struct System.Product",
          "name": "prodd",
          "type": "tuple"
        }
      ],
      "payable": false,
      "stateMutability": "nonpayable",
      "type": "function"
    },
    {
      "constant": false,
      "inputs": [
        {
          "internalType": "bytes32",
          "name": "product_add",
          "type": "bytes32"
        }
      ],
      "name": "delete_product",
      "outputs": [],
      "payable": false,
      "stateMutability": "nonpayable",
      "type": "function"
    }
  ],
  "bytecode": "0x608060405234801561001057600080fd5b506118de806100206000396000f3fe608060405234801561001057600080fd5b50600436106100935760003560e01c8063720e323511610066578063720e32351461010d578063790543911461013d5780638ace7b9b14610170578063af87729e146101a0578063cf1d99f5146101d057610093565b80630302c68814610098578063133af958146100b9578063406e2024146100d5578063610bb238146100f1575b600080fd5b6100a06101ec565b6040516100b094939291906116d1565b60405180910390f35b6100d360048036036100ce91908101906113f1565b6103d2565b005b6100ef60048036036100ea91908101906114b0565b61049d565b005b61010b60048036036101069190810190611346565b6104ee565b005b610127600480360361012291908101906112c7565b6105a8565b6040516101349190611694565b60405180910390f35b610157600480360361015291908101906114b0565b610832565b60405161016794939291906116d1565b60405180910390f35b61018a600480360361018591908101906112c7565b610a2a565b6040516101979190611694565b60405180910390f35b6101ba60048036036101b591908101906114b0565b610cbe565b6040516101c791906116af565b60405180910390f35b6101ea60048036036101e591908101906114d9565b610f63565b005b6000806000015490806001018054600181600116156101000203166002900480601f01602080910402602001604051908101604052809291908181526020018280546001816001161561010002031660029004801561028c5780601f106102615761010080835404028352916020019161028c565b820191906000526020600020905b81548152906001019060200180831161026f57829003601f168201915b505050505090806002018054600181600116156101000203166002900480601f01602080910402602001604051908101604052809291908181526020018280546001816001161561010002031660029004801561032a5780601f106102ff5761010080835404028352916020019161032a565b820191906000526020600020905b81548152906001019060200180831161030d57829003601f168201915b505050505090806003018054600181600116156101000203166002900480601f0160208091040260200160405190810160405280929190818152602001828054600181600116156101000203166002900480156103c85780601f1061039d576101008083540402835291602001916103c8565b820191906000526020600020905b8154815290600101906020018083116103ab57829003601f168201915b5050505050905084565b604051806080016040528085815260200184815260200183815260200182815250600560008773ffffffffffffffffffffffffffffffffffffffff1673ffffffffffffffffffffffffffffffffffffffff168152602001908152602001600020600082015181600001908051906020019061044e92919061104f565b50602082015181600101908051906020019061046b92919061104f565b50604082015181600201908051906020019061048892919061104f565b50606082015181600301559050505050505050565b600660008281526020019081526020016000206000808201600090556001820160006104c991906110cf565b6002820160006104d991906110cf565b6003820160006104e991906110cf565b505050565b604051806060016040528084815260200183815260200182815250600460008673ffffffffffffffffffffffffffffffffffffffff1673ffffffffffffffffffffffffffffffffffffffff168152602001908152602001600020600082015181600001908051906020019061056492919061104f565b50602082015181600101908051906020019061058192919061104f565b50604082015181600201908051906020019061059e92919061104f565b5090505050505050565b60006105b2611117565b600460008673ffffffffffffffffffffffffffffffffffffffff1673ffffffffffffffffffffffffffffffffffffffff168152602001908152602001600020604051806060016040529081600082018054600181600116156101000203166002900480601f0160208091040260200160405190810160405280929190818152602001828054600181600116156101000203166002900480156106955780601f1061066a57610100808354040283529160200191610695565b820191906000526020600020905b81548152906001019060200180831161067857829003601f168201915b50505050508152602001600182018054600181600116156101000203166002900480601f0160208091040260200160405190810160405280929190818152602001828054600181600116156101000203166002900480156107375780601f1061070c57610100808354040283529160200191610737565b820191906000526020600020905b81548152906001019060200180831161071a57829003601f168201915b50505050508152602001600282018054600181600116156101000203166002900480601f0160208091040260200160405190810160405280929190818152602001828054600181600116156101000203166002900480156107d95780601f106107ae576101008083540402835291602001916107d9565b820191906000526020600020905b8154815290600101906020018083116107bc57829003601f168201915b5050505050815250509050838051906020012081600001518051906020012014801561081657508280519060200120816040015180519060200120145b1561082557600191505061082b565b60009150505b9392505050565b6006602052806000526040600020600091509050806000015490806001018054600181600116156101000203166002900480601f0160208091040260200160405190810160405280929190818152602001828054600181600116156101000203166002900480156108e45780601f106108b9576101008083540402835291602001916108e4565b820191906000526020600020905b8154815290600101906020018083116108c757829003601f168201915b505050505090806002018054600181600116156101000203166002900480601f0160208091040260200160405190810160405280929190818152602001828054600181600116156101000203166002900480156109825780601f1061095757610100808354040283529160200191610982565b820191906000526020600020905b81548152906001019060200180831161096557829003601f168201915b505050505090806003018054600181600116156101000203166002900480601f016020809104026020016040519081016040528092919081815260200182805460018160011615610100020316600290048015610a205780601f106109f557610100808354040283529160200191610a20565b820191906000526020600020905b815481529060010190602001808311610a0357829003601f168201915b5050505050905084565b6000610a34611138565b600560008673ffffffffffffffffffffffffffffffffffffffff1673ffffffffffffffffffffffffffffffffffffffff168152602001908152602001600020604051806080016040529081600082018054600181600116156101000203166002900480601f016020809104026020016040519081016040528092919081815260200182805460018160011615610100020316600290048015610b175780601f10610aec57610100808354040283529160200191610b17565b820191906000526020600020905b815481529060010190602001808311610afa57829003601f168201915b50505050508152602001600182018054600181600116156101000203166002900480601f016020809104026020016040519081016040528092919081815260200182805460018160011615610100020316600290048015610bb95780601f10610b8e57610100808354040283529160200191610bb9565b820191906000526020600020905b815481529060010190602001808311610b9c57829003601f168201915b50505050508152602001600282018054600181600116156101000203166002900480601f016020809104026020016040519081016040528092919081815260200182805460018160011615610100020316600290048015610c5b5780601f10610c3057610100808354040283529160200191610c5b565b820191906000526020600020905b815481529060010190602001808311610c3e57829003601f168201915b5050505050815260200160038201548152505090508380519060200120816000015180519060200120148015610ca257508280519060200120816040015180519060200120145b15610cb1576001915050610cb7565b60009150505b9392505050565b610cc6611160565b60066000838152602001908152602001600020600080820154816000015560018201816001019080546001816001161561010002031660029004610d0b929190611188565b5060028201816002019080546001816001161561010002031660029004610d33929190611188565b5060038201816003019080546001816001161561010002031660029004610d5b929190611188565b50905050600060405180608001604052908160008201548152602001600182018054600181600116156101000203166002900480601f016020809104026020016040519081016040528092919081815260200182805460018160011615610100020316600290048015610e0f5780601f10610de457610100808354040283529160200191610e0f565b820191906000526020600020905b815481529060010190602001808311610df257829003601f168201915b50505050508152602001600282018054600181600116156101000203166002900480601f016020809104026020016040519081016040528092919081815260200182805460018160011615610100020316600290048015610eb15780601f10610e8657610100808354040283529160200191610eb1565b820191906000526020600020905b815481529060010190602001808311610e9457829003601f168201915b50505050508152602001600382018054600181600116156101000203166002900480601f016020809104026020016040519081016040528092919081815260200182805460018160011615610100020316600290048015610f535780601f10610f2857610100808354040283529160200191610f53565b820191906000526020600020905b815481529060010190602001808311610f3657829003601f168201915b5050505050815250509050919050565b610f6b611160565b604051806080016040528086815260200185815260200184815260200183815250905060008160000151826020015183604001518460600151604051602001610fb794939291906116d1565b604051602081830303815290604052805190602001209050816006600083815260200190815260200160002060008201518160000155602082015181600101908051906020019061100992919061104f565b50604082015181600201908051906020019061102692919061104f565b50606082015181600301908051906020019061104392919061104f565b50905050505050505050565b828054600181600116156101000203166002900490600052602060002090601f016020900481019282601f1061109057805160ff19168380011785556110be565b828001600101855582156110be579182015b828111156110bd5782518255916020019190600101906110a2565b5b5090506110cb919061120f565b5090565b50805460018160011615610100020316600290046000825580601f106110f55750611114565b601f016020900490600052602060002090810190611113919061120f565b5b50565b60405180606001604052806060815260200160608152602001606081525090565b6040518060800160405280606081526020016060815260200160608152602001600081525090565b6040518060800160405280600081526020016060815260200160608152602001606081525090565b828054600181600116156101000203166002900490600052602060002090601f016020900481019282601f106111c157805485556111fe565b828001600101855582156111fe57600052602060002091601f016020900482015b828111156111fd5782548255916001019190600101906111e2565b5b50905061120b919061120f565b5090565b61123191905b8082111561122d576000816000905550600101611215565b5090565b90565b60008135905061124381611856565b92915050565b6000813590506112588161186d565b92915050565b600082601f83011261126f57600080fd5b813561128261127d82611758565b61172b565b9150808252602083016020830185838301111561129e57600080fd5b6112a9838284611803565b50505092915050565b6000813590506112c181611884565b92915050565b6000806000606084860312156112dc57600080fd5b60006112ea86828701611234565b935050602084013567ffffffffffffffff81111561130757600080fd5b6113138682870161125e565b925050604084013567ffffffffffffffff81111561133057600080fd5b61133c8682870161125e565b9150509250925092565b6000806000806080858703121561135c57600080fd5b600061136a87828801611234565b945050602085013567ffffffffffffffff81111561138757600080fd5b6113938782880161125e565b935050604085013567ffffffffffffffff8111156113b057600080fd5b6113bc8782880161125e565b925050606085013567ffffffffffffffff8111156113d957600080fd5b6113e58782880161125e565b91505092959194509250565b600080600080600060a0868803121561140957600080fd5b600061141788828901611234565b955050602086013567ffffffffffffffff81111561143457600080fd5b6114408882890161125e565b945050604086013567ffffffffffffffff81111561145d57600080fd5b6114698882890161125e565b935050606086013567ffffffffffffffff81111561148657600080fd5b6114928882890161125e565b92505060806114a3888289016112b2565b9150509295509295909350565b6000602082840312156114c257600080fd5b60006114d084828501611249565b91505092915050565b600080600080608085870312156114ef57600080fd5b60006114fd878288016112b2565b945050602085013567ffffffffffffffff81111561151a57600080fd5b6115268782880161125e565b935050604085013567ffffffffffffffff81111561154357600080fd5b61154f8782880161125e565b925050606085013567ffffffffffffffff81111561156c57600080fd5b6115788782880161125e565b91505092959194509250565b61158d816117c3565b82525050565b600061159e82611784565b6115a8818561178f565b93506115b8818560208601611812565b6115c181611845565b840191505092915050565b60006115d782611784565b6115e181856117a0565b93506115f1818560208601611812565b6115fa81611845565b840191505092915050565b600060808301600083015161161d6000860182611676565b50602083015184820360208601526116358282611593565b9150506040830151848203604086015261164f8282611593565b915050606083015184820360608601526116698282611593565b9150508091505092915050565b61167f816117f9565b82525050565b61168e816117f9565b82525050565b60006020820190506116a96000830184611584565b92915050565b600060208201905081810360008301526116c98184611605565b905092915050565b60006080820190506116e66000830187611685565b81810360208301526116f881866115cc565b9050818103604083015261170c81856115cc565b9050818103606083015261172081846115cc565b905095945050505050565b6000604051905081810181811067ffffffffffffffff8211171561174e57600080fd5b8060405250919050565b600067ffffffffffffffff82111561176f57600080fd5b601f19601f8301169050602081019050919050565b600081519050919050565b600082825260208201905092915050565b600082825260208201905092915050565b60006117bc826117d9565b9050919050565b60008115159050919050565b6000819050919050565b600073ffffffffffffffffffffffffffffffffffffffff82169050919050565b6000819050919050565b82818337600083830152505050565b60005b83811015611830578082015181840152602081019050611815565b8381111561183f576000848401525b50505050565b6000601f19601f8301169050919050565b61185f816117b1565b811461186a57600080fd5b50565b611876816117cf565b811461188157600080fd5b50565b61188d816117f9565b811461189857600080fd5b5056fea365627a7a723158209aa65fbb6da8bc7adac55d926664803ea04df09820f38308e50c7742556b2a7f6c6578706572696d656e74616cf564736f6c63430005100040",
  "source": "// SPDX-License-Identifier: MIT\npragma experimental ABIEncoderV2;\npragma solidity >=0.4.17<0.9.0;\n\ncontract System {\n\n    struct Company {\n        string name;\n        string email;\n        string password;\n        uint256 certifcate_num;\n    }\n\n    struct User {\n        string name;\n        string email;\n        string password;\n    }\n\n    struct Product {\n        uint id;\n        string name;\n        string description;\n        string companyName;\n    }\n\n    Product public prod;\n\n    mapping(address => User) users;\n    mapping(address => Company) companies;\n    mapping(bytes32 => Product) public products;\n\n\n    function register_User(address _useraddress,string memory _name, string memory _email, string memory _password) public {\n        users[_useraddress] = User(_name,_email,_password);\n    }\n\n    function register_Company(address _compaddress,string memory _name, string memory _email, string memory _password,uint256 _cert_num) public {\n        companies[_compaddress] = Company(_name,_email,_password,_cert_num);\n    }\n\n    function upload_Product(uint _id,string memory _name, string memory _description,string memory _companyName) public \n    {\n        Product memory p = Product(_id,_name,_description,_companyName);\n        bytes32 p_hashed = keccak256(abi.encode(p.id, p.name, p.description, p.companyName));\n        products[p_hashed] = p;\n    }\n\n    function login_user (address user_add , string memory _name , string memory _password) public view returns (bool found)\n    {\n            User memory user = users[user_add];\n            \n            // str compare keccak256(bytes(a)) == keccak256(bytes(b));\n            if(keccak256(bytes(user.name)) == keccak256(bytes(_name)) && keccak256(bytes(user.password)) == keccak256(bytes(_password)))\n                return true;\n            else\n                return false;\n    }\n\n    function login_company (address company_add , string memory _name , string memory _password) public view returns (bool found)\n    {\n            Company memory company = companies[company_add];\n            \n            // str compare keccak256(bytes(a)) == keccak256(bytes(b));\n            if(keccak256(bytes(company.name)) == keccak256(bytes(_name)) && keccak256(bytes(company.password)) == keccak256(bytes(_password)))\n                return true;\n            else\n                return false;\n    }\n\n    function verify_product (bytes32 product_add) public returns (Product memory prodd)\n    {\n        prod = products[product_add];\n        return prod;\n    }\n\n    function delete_product (bytes32 product_add) public {\n        delete products[product_add];\n    }\n    \n}",
  "sourcePath": "C:\\Users\\MSI-PC\\Desktop\\Fake-Product-Identification\\contracts\\System.sol",
  "compiler": {
    "name": "solc",
    "version": "0.5.16+commit.9c3226ce.Emscripten.clang"
  },
  "schemaVersion": "3.4.13",
  "updatedAt": "2023-03-10T17:59:43.030Z",
  "networkType": "ethereum",
  "devdoc": {
    "methods": {}
  },
  "userdoc": {
    "methods": {}
  }
}